{
  "contractName": "ManageMedicalRecords",
  "abi": [
    {
      "inputs": [],
      "stateMutability": "nonpayable",
      "type": "constructor"
    },
    {
      "inputs": [
        {
          "internalType": "address",
          "name": "acc",
          "type": "address"
        },
        {
          "internalType": "string",
          "name": "name",
          "type": "string"
        }
      ],
      "name": "addManager",
      "outputs": [],
      "stateMutability": "nonpayable",
      "type": "function"
    },
    {
      "inputs": [
        {
          "internalType": "address",
          "name": "acc",
          "type": "address"
        }
      ],
      "name": "findManage",
      "outputs": [
        {
          "internalType": "address",
          "name": "_acc",
          "type": "address"
        },
        {
          "internalType": "string",
          "name": "name",
          "type": "string"
        },
        {
          "internalType": "bool",
          "name": "admin",
          "type": "bool"
        }
      ],
      "stateMutability": "view",
      "type": "function",
      "constant": true
    },
    {
      "inputs": [
        {
          "internalType": "string",
          "name": "_id",
          "type": "string"
        },
        {
          "internalType": "string",
          "name": "_name",
          "type": "string"
        },
        {
          "internalType": "uint256",
          "name": "_age",
          "type": "uint256"
        },
        {
          "internalType": "string",
          "name": "_gender",
          "type": "string"
        },
        {
          "internalType": "string",
          "name": "_add",
          "type": "string"
        },
        {
          "internalType": "string",
          "name": "_phone",
          "type": "string"
        },
        {
          "internalType": "string",
          "name": "_major",
          "type": "string"
        }
      ],
      "name": "addPatient",
      "outputs": [],
      "stateMutability": "nonpayable",
      "type": "function"
    },
    {
      "inputs": [
        {
          "internalType": "string",
          "name": "_id",
          "type": "string"
        }
      ],
      "name": "findPatent",
      "outputs": [
        {
          "internalType": "string",
          "name": "id",
          "type": "string"
        },
        {
          "internalType": "string",
          "name": "name",
          "type": "string"
        },
        {
          "internalType": "uint256",
          "name": "age",
          "type": "uint256"
        },
        {
          "internalType": "string",
          "name": "gender",
          "type": "string"
        },
        {
          "internalType": "string",
          "name": "add",
          "type": "string"
        },
        {
          "internalType": "string",
          "name": "phone",
          "type": "string"
        },
        {
          "internalType": "string",
          "name": "major",
          "type": "string"
        }
      ],
      "stateMutability": "view",
      "type": "function",
      "constant": true
    },
    {
      "inputs": [
        {
          "internalType": "address",
          "name": "_acc",
          "type": "address"
        },
        {
          "internalType": "string",
          "name": "_id",
          "type": "string"
        },
        {
          "internalType": "string",
          "name": "_name",
          "type": "string"
        },
        {
          "internalType": "uint256",
          "name": "_age",
          "type": "uint256"
        },
        {
          "internalType": "string",
          "name": "_gender",
          "type": "string"
        },
        {
          "internalType": "string",
          "name": "_add",
          "type": "string"
        },
        {
          "internalType": "string",
          "name": "_phone",
          "type": "string"
        },
        {
          "internalType": "string",
          "name": "_major",
          "type": "string"
        }
      ],
      "name": "changeInforPatient",
      "outputs": [],
      "stateMutability": "nonpayable",
      "type": "function"
    },
    {
      "inputs": [
        {
          "internalType": "uint256",
          "name": "number",
          "type": "uint256"
        }
      ],
      "name": "addDataRandom",
      "outputs": [
        {
          "internalType": "string[]",
          "name": "",
          "type": "string[]"
        }
      ],
      "stateMutability": "view",
      "type": "function",
      "constant": true
    }
  ],
  "bytecode": "0x60806040523480156200001157600080fd5b5060405180604001604052806040518060400160405280600581526020017f41646d696e0000000000000000000000000000000000000000000000000000008152508152602001600115158152506000803373ffffffffffffffffffffffffffffffffffffffff1673ffffffffffffffffffffffffffffffffffffffff1681526020019081526020016000206000820151816000019081620000b4919062000358565b5060208201518160010160006101000a81548160ff0219169083151502179055509050506200043f565b600081519050919050565b7f4e487b7100000000000000000000000000000000000000000000000000000000600052604160045260246000fd5b7f4e487b7100000000000000000000000000000000000000000000000000000000600052602260045260246000fd5b600060028204905060018216806200016057607f821691505b60208210810362000176576200017562000118565b5b50919050565b60008190508160005260206000209050919050565b60006020601f8301049050919050565b600082821b905092915050565b600060088302620001e07fffffffffffffffffffffffffffffffffffffffffffffffffffffffffffffffff82620001a1565b620001ec8683620001a1565b95508019841693508086168417925050509392505050565b6000819050919050565b6000819050919050565b600062000239620002336200022d8462000204565b6200020e565b62000204565b9050919050565b6000819050919050565b620002558362000218565b6200026d620002648262000240565b848454620001ae565b825550505050565b600090565b6200028462000275565b620002918184846200024a565b505050565b5b81811015620002b957620002ad6000826200027a565b60018101905062000297565b5050565b601f8211156200030857620002d2816200017c565b620002dd8462000191565b81016020851015620002ed578190505b62000305620002fc8562000191565b83018262000296565b50505b505050565b600082821c905092915050565b60006200032d600019846008026200030d565b1980831691505092915050565b60006200034883836200031a565b9150826002028217905092915050565b6200036382620000de565b67ffffffffffffffff8111156200037f576200037e620000e9565b5b6200038b825462000147565b62000398828285620002bd565b600060209050601f831160018114620003d05760008415620003bb578287015190505b620003c785826200033a565b86555062000437565b601f198416620003e0866200017c565b60005b828110156200040a57848901518255600182019150602085019450602081019050620003e3565b868310156200042a578489015162000426601f8916826200031a565b8355505b6001600288020188555050505b505050505050565b611a59806200044f6000396000f3fe608060405234801561001057600080fd5b50600436106100625760003560e01c80631c29be8d14610067578063229c76eb14610097578063352b3c20146100b3578063549be7d4146100e9578063596e981a14610105578063979a40cb14610137575b600080fd5b610081600480360381019061007c9190610bbc565b610153565b60405161008e9190610d3b565b60405180910390f35b6100b160048036038101906100ac9190610ef0565b6101a6565b005b6100cd60048036038101906100c89190610f4c565b6102a5565b6040516100e09796959493929190610fee565b60405180910390f35b61010360048036038101906100fe9190611087565b610651565b005b61011f600480360381019061011a91906111e5565b6107e1565b60405161012e9392919061123c565b60405180910390f35b610151600480360381019061014c919061127a565b6108d9565b005b60608060005b8381101561019c5761016b6004610a34565b82828151811061017e5761017d6113c4565b5b6020026020010181905250808061019490611422565b915050610159565b5080915050919050565b6000808373ffffffffffffffffffffffffffffffffffffffff1673ffffffffffffffffffffffffffffffffffffffff16815260200190815260200160002060010160009054906101000a900460ff166101fe57600080fd5b6000819050600081510361021157600080fd5b6040518060400160405280838152602001600115158152506000808573ffffffffffffffffffffffffffffffffffffffff1673ffffffffffffffffffffffffffffffffffffffff168152602001908152602001600020600082015181600001908161027c9190611676565b5060208201518160010160006101000a81548160ff021916908315150217905550905050505050565b606080600060608060608060006001896040516102c29190611784565b9081526020016040518091039020905080600001816001018260020154836003018460040185600501866006018680546102fb90611499565b80601f016020809104026020016040519081016040528092919081815260200182805461032790611499565b80156103745780601f1061034957610100808354040283529160200191610374565b820191906000526020600020905b81548152906001019060200180831161035757829003601f168201915b5050505050965085805461038790611499565b80601f01602080910402602001604051908101604052809291908181526020018280546103b390611499565b80156104005780601f106103d557610100808354040283529160200191610400565b820191906000526020600020905b8154815290600101906020018083116103e357829003601f168201915b5050505050955083805461041390611499565b80601f016020809104026020016040519081016040528092919081815260200182805461043f90611499565b801561048c5780601f106104615761010080835404028352916020019161048c565b820191906000526020600020905b81548152906001019060200180831161046f57829003601f168201915b5050505050935082805461049f90611499565b80601f01602080910402602001604051908101604052809291908181526020018280546104cb90611499565b80156105185780601f106104ed57610100808354040283529160200191610518565b820191906000526020600020905b8154815290600101906020018083116104fb57829003601f168201915b5050505050925081805461052b90611499565b80601f016020809104026020016040519081016040528092919081815260200182805461055790611499565b80156105a45780601f10610579576101008083540402835291602001916105a4565b820191906000526020600020905b81548152906001019060200180831161058757829003601f168201915b505050505091508080546105b790611499565b80601f01602080910402602001604051908101604052809291908181526020018280546105e390611499565b80156106305780601f1061060557610100808354040283529160200191610630565b820191906000526020600020905b81548152906001019060200180831161061357829003601f168201915b50505050509050975097509750975097509750975050919395979092949650565b60006001886040516106639190611784565b9081526020016040518091039020600001805461067f90611499565b9050036106c1576040517f08c379a00000000000000000000000000000000000000000000000000000000081526004016106b8906117e7565b60405180910390fd5b60008060008a73ffffffffffffffffffffffffffffffffffffffff1673ffffffffffffffffffffffffffffffffffffffff168152602001908152602001600020600001805461070f90611499565b905003610751576040517f08c379a000000000000000000000000000000000000000000000000000000000815260040161074890611853565b60405180910390fd5b60006001886040516107639190611784565b90815260200160405180910390209050868160010190816107849190611676565b508581600201819055508481600301908161079f9190611676565b50838160040190816107b19190611676565b50828160050190816107c39190611676565b50818160060190816107d59190611676565b50505050505050505050565b600060606000806000808673ffffffffffffffffffffffffffffffffffffffff1673ffffffffffffffffffffffffffffffffffffffff168152602001908152602001600020905084816000018260010160009054906101000a900460ff1681805461084b90611499565b80601f016020809104026020016040519081016040528092919081815260200182805461087790611499565b80156108c45780601f10610899576101008083540402835291602001916108c4565b820191906000526020600020905b8154815290600101906020018083116108a757829003601f168201915b50505050509150935093509350509193909250565b60006001886040516108eb9190611784565b9081526020016040518091039020600001805461090790611499565b905014610949576040517f08c379a0000000000000000000000000000000000000000000000000000000008152600401610940906118bf565b60405180910390fd5b6040518060e001604052808881526020018781526020018681526020018581526020018481526020018381526020018281525060018860405161098c9190611784565b908152602001604051809103902060008201518160000190816109af9190611676565b5060208201518160010190816109c59190611676565b506040820151816002015560608201518160030190816109e59190611676565b5060808201518160040190816109fb9190611676565b5060a0820151816005019081610a119190611676565b5060c0820151816006019081610a279190611676565b5090505050505050505050565b606060006040518060600160405280603e81526020016119e6603e9139905060008367ffffffffffffffff811115610a6f57610a6e610dc5565b5b6040519080825280601f01601f191660200182016040528015610aa15781602001600182028036833780820191505090505b50905060008251905060005b85811015610b66576000423383604051602001610acc93929190611948565b6040516020818303038152906040528051906020012060001c9050848382610af491906119b4565b81518110610b0557610b046113c4565b5b602001015160f81c60f81b848381518110610b2357610b226113c4565b5b60200101907effffffffffffffffffffffffffffffffffffffffffffffffffffffffffffff1916908160001a905350508080610b5e90611422565b915050610aad565b50819350505050919050565b6000604051905090565b600080fd5b600080fd5b6000819050919050565b610b9981610b86565b8114610ba457600080fd5b50565b600081359050610bb681610b90565b92915050565b600060208284031215610bd257610bd1610b7c565b5b6000610be084828501610ba7565b91505092915050565b600081519050919050565b600082825260208201905092915050565b6000819050602082019050919050565b600081519050919050565b600082825260208201905092915050565b60005b83811015610c4f578082015181840152602081019050610c34565b60008484015250505050565b6000601f19601f8301169050919050565b6000610c7782610c15565b610c818185610c20565b9350610c91818560208601610c31565b610c9a81610c5b565b840191505092915050565b6000610cb18383610c6c565b905092915050565b6000602082019050919050565b6000610cd182610be9565b610cdb8185610bf4565b935083602082028501610ced85610c05565b8060005b85811015610d295784840389528151610d0a8582610ca5565b9450610d1583610cb9565b925060208a01995050600181019050610cf1565b50829750879550505050505092915050565b60006020820190508181036000830152610d558184610cc6565b905092915050565b600073ffffffffffffffffffffffffffffffffffffffff82169050919050565b6000610d8882610d5d565b9050919050565b610d9881610d7d565b8114610da357600080fd5b50565b600081359050610db581610d8f565b92915050565b600080fd5b600080fd5b7f4e487b7100000000000000000000000000000000000000000000000000000000600052604160045260246000fd5b610dfd82610c5b565b810181811067ffffffffffffffff82111715610e1c57610e1b610dc5565b5b80604052505050565b6000610e2f610b72565b9050610e3b8282610df4565b919050565b600067ffffffffffffffff821115610e5b57610e5a610dc5565b5b610e6482610c5b565b9050602081019050919050565b82818337600083830152505050565b6000610e93610e8e84610e40565b610e25565b905082815260208101848484011115610eaf57610eae610dc0565b5b610eba848285610e71565b509392505050565b600082601f830112610ed757610ed6610dbb565b5b8135610ee7848260208601610e80565b91505092915050565b60008060408385031215610f0757610f06610b7c565b5b6000610f1585828601610da6565b925050602083013567ffffffffffffffff811115610f3657610f35610b81565b5b610f4285828601610ec2565b9150509250929050565b600060208284031215610f6257610f61610b7c565b5b600082013567ffffffffffffffff811115610f8057610f7f610b81565b5b610f8c84828501610ec2565b91505092915050565b600082825260208201905092915050565b6000610fb182610c15565b610fbb8185610f95565b9350610fcb818560208601610c31565b610fd481610c5b565b840191505092915050565b610fe881610b86565b82525050565b600060e0820190508181036000830152611008818a610fa6565b9050818103602083015261101c8189610fa6565b905061102b6040830188610fdf565b818103606083015261103d8187610fa6565b905081810360808301526110518186610fa6565b905081810360a08301526110658185610fa6565b905081810360c08301526110798184610fa6565b905098975050505050505050565b600080600080600080600080610100898b0312156110a8576110a7610b7c565b5b60006110b68b828c01610da6565b985050602089013567ffffffffffffffff8111156110d7576110d6610b81565b5b6110e38b828c01610ec2565b975050604089013567ffffffffffffffff81111561110457611103610b81565b5b6111108b828c01610ec2565b96505060606111218b828c01610ba7565b955050608089013567ffffffffffffffff81111561114257611141610b81565b5b61114e8b828c01610ec2565b94505060a089013567ffffffffffffffff81111561116f5761116e610b81565b5b61117b8b828c01610ec2565b93505060c089013567ffffffffffffffff81111561119c5761119b610b81565b5b6111a88b828c01610ec2565b92505060e089013567ffffffffffffffff8111156111c9576111c8610b81565b5b6111d58b828c01610ec2565b9150509295985092959890939650565b6000602082840312156111fb576111fa610b7c565b5b600061120984828501610da6565b91505092915050565b61121b81610d7d565b82525050565b60008115159050919050565b61123681611221565b82525050565b60006060820190506112516000830186611212565b81810360208301526112638185610fa6565b9050611272604083018461122d565b949350505050565b600080600080600080600060e0888a03121561129957611298610b7c565b5b600088013567ffffffffffffffff8111156112b7576112b6610b81565b5b6112c38a828b01610ec2565b975050602088013567ffffffffffffffff8111156112e4576112e3610b81565b5b6112f08a828b01610ec2565b96505060406113018a828b01610ba7565b955050606088013567ffffffffffffffff81111561132257611321610b81565b5b61132e8a828b01610ec2565b945050608088013567ffffffffffffffff81111561134f5761134e610b81565b5b61135b8a828b01610ec2565b93505060a088013567ffffffffffffffff81111561137c5761137b610b81565b5b6113888a828b01610ec2565b92505060c088013567ffffffffffffffff8111156113a9576113a8610b81565b5b6113b58a828b01610ec2565b91505092959891949750929550565b7f4e487b7100000000000000000000000000000000000000000000000000000000600052603260045260246000fd5b7f4e487b7100000000000000000000000000000000000000000000000000000000600052601160045260246000fd5b600061142d82610b86565b91507fffffffffffffffffffffffffffffffffffffffffffffffffffffffffffffffff820361145f5761145e6113f3565b5b600182019050919050565b7f4e487b7100000000000000000000000000000000000000000000000000000000600052602260045260246000fd5b600060028204905060018216806114b157607f821691505b6020821081036114c4576114c361146a565b5b50919050565b60008190508160005260206000209050919050565b60006020601f8301049050919050565b600082821b905092915050565b60006008830261152c7fffffffffffffffffffffffffffffffffffffffffffffffffffffffffffffffff826114ef565b61153686836114ef565b95508019841693508086168417925050509392505050565b6000819050919050565b600061157361156e61156984610b86565b61154e565b610b86565b9050919050565b6000819050919050565b61158d83611558565b6115a16115998261157a565b8484546114fc565b825550505050565b600090565b6115b66115a9565b6115c1818484611584565b505050565b5b818110156115e5576115da6000826115ae565b6001810190506115c7565b5050565b601f82111561162a576115fb816114ca565b611604846114df565b81016020851015611613578190505b61162761161f856114df565b8301826115c6565b50505b505050565b600082821c905092915050565b600061164d6000198460080261162f565b1980831691505092915050565b6000611666838361163c565b9150826002028217905092915050565b61167f82610c15565b67ffffffffffffffff81111561169857611697610dc5565b5b6116a28254611499565b6116ad8282856115e9565b600060209050601f8311600181146116e057600084156116ce578287015190505b6116d8858261165a565b865550611740565b601f1984166116ee866114ca565b60005b82811015611716578489015182556001820191506020850194506020810190506116f1565b86831015611733578489015161172f601f89168261163c565b8355505b6001600288020188555050505b505050505050565b600081905092915050565b600061175e82610c15565b6117688185611748565b9350611778818560208601610c31565b80840191505092915050565b60006117908284611753565b915081905092915050565b7f50617469656e74206973206e6f74206578697374000000000000000000000000600082015250565b60006117d1601483610f95565b91506117dc8261179b565b602082019050919050565b60006020820190508181036000830152611800816117c4565b9050919050565b7f55736572206973206e6f74206d616e6167657200000000000000000000000000600082015250565b600061183d601383610f95565b915061184882611807565b602082019050919050565b6000602082019050818103600083015261186c81611830565b9050919050565b7f50617469656e7420697320657869737400000000000000000000000000000000600082015250565b60006118a9601083610f95565b91506118b482611873565b602082019050919050565b600060208201905081810360008301526118d88161189c565b9050919050565b6000819050919050565b6118fa6118f582610b86565b6118df565b82525050565b60008160601b9050919050565b600061191882611900565b9050919050565b600061192a8261190d565b9050919050565b61194261193d82610d7d565b61191f565b82525050565b600061195482866118e9565b6020820191506119648285611931565b60148201915061197482846118e9565b602082019150819050949350505050565b7f4e487b7100000000000000000000000000000000000000000000000000000000600052601260045260246000fd5b60006119bf82610b86565b91506119ca83610b86565b9250826119da576119d9611985565b5b82820690509291505056fe6162636465666768696a6b6c6d6e6f707172737475767778797a4142434445464748494a4b4c4d4e4f505152535455565758595a30313233343536373839a264697066735822122087bdca5a65843cf5b33274c80a85d443a0bf2c802f91baf2a7c614ac1aeff5c764736f6c63430008120033",
  "immutableReferences": {},
  "source": "pragma solidity ^0.8.2;\r\n\r\ncontract ManageMedicalRecords {\r\n    struct manager {\r\n        string name;\r\n        bool admin;\r\n    }\r\n    mapping(address => manager) isManager;\r\n\r\n    constructor() {\r\n        isManager[msg.sender] = manager(\"Admin\", true);\r\n    }\r\n\r\n    function addManager(address acc, string memory name) public {\r\n        require(isManager[acc].admin);\r\n        bytes memory _name = bytes(name);\r\n\r\n        require(_name.length != 0);\r\n\r\n        isManager[acc] = manager(name, true);\r\n    }\r\n\r\n    function findManage(address acc) public view returns (\r\n            address _acc,\r\n            string memory name,\r\n            bool admin\r\n        )\r\n    {\r\n        manager storage res = isManager[acc];\r\n        return (acc, res.name, res.admin);\r\n    }\r\n\r\n    struct Patient {\r\n        string id;\r\n        string name;\r\n        uint256 age;\r\n        string gender;\r\n        string add;\r\n        string phone;\r\n        string major;\r\n    }\r\n    mapping(string => Patient) isPatient;\r\n    struct MedicalHistory {\r\n        string inforMH; //Thong tin\r\n        string symptoms; //Trieu chung\r\n        string medicalCond; //Tinh trang benh\r\n        string testRes; //Ket qua xet nghiem\r\n        string diagnosis; //Chan doan\r\n    }\r\n    struct InforTreatment {\r\n        string medications; //Cac loai thuoc\r\n        string dosages; //lieu luong\r\n        string treatments; //pp dieu tri\r\n        string duration; //Thoi gian dieu tri\r\n    }\r\n    struct MedicalRecord {\r\n        Patient patient;\r\n        MedicalHistory medicalHistory;\r\n        InforTreatment inforTreat;\r\n    }\r\n\r\n    function addPatient(\r\n        string memory _id,\r\n        string memory _name,\r\n        uint256 _age,\r\n        string memory _gender,\r\n        string memory _add,\r\n        string memory _phone,\r\n        string memory _major\r\n    ) public {\r\n        require((bytes(isPatient[_id].id).length) == 0, \"Patient is exist\");\r\n        isPatient[_id] = Patient(\r\n            _id,\r\n            _name,\r\n            _age,\r\n            _gender,\r\n            _add,\r\n            _phone,\r\n            _major\r\n        );\r\n    }\r\n\r\n    function findPatent(string memory _id) public view returns (\r\n            string memory id,\r\n            string memory name,\r\n            uint256 age,\r\n            string memory gender,\r\n            string memory add,\r\n            string memory phone,\r\n            string memory major\r\n        )\r\n    {\r\n        Patient storage res = isPatient[_id];\r\n        return (\r\n            res.id,\r\n            res.name,\r\n            res.age,\r\n            res.gender,\r\n            res.add,\r\n            res.phone,\r\n            res.major\r\n        );\r\n    }\r\n\r\n    function changeInforPatient(\r\n        address _acc,\r\n        string memory _id,\r\n        string memory _name,\r\n        uint256 _age,\r\n        string memory _gender,\r\n        string memory _add,\r\n        string memory _phone,\r\n        string memory _major\r\n     ) public {\r\n        require((bytes(isPatient[_id].id).length) != 0, \"Patient is not exist\");\r\n\r\n        require ((bytes(isManager[_acc].name).length) != 0, \"User is not manager\");\r\n        Patient storage res = isPatient[_id];\r\n        res.name = _name;\r\n        res.age = _age;\r\n        res.gender = _gender;\r\n        res.add = _add;\r\n        res.phone = _phone;\r\n        res.major = _major;\r\n    }\r\n\r\n    function randomString(uint256 length) internal view returns (string memory) {\r\n    bytes memory characters = \"abcdefghijklmnopqrstuvwxyzABCDEFGHIJKLMNOPQRSTUVWXYZ0123456789\";\r\n    bytes memory result = new bytes(length);\r\n    uint256 charLength = characters.length;\r\n\r\n    for (uint256 i = 0; i < length; i++) {\r\n        uint256 rand = uint256(keccak256(abi.encodePacked(block.timestamp, msg.sender, i)));\r\n        result[i] = characters[rand % charLength];\r\n    }\r\n\r\n    return string(result);\r\n    }\r\n    \r\n\r\n    function addDataRandom(uint256 number) public view returns(string [] memory){\r\n        string[] memory myArray;\r\n        for(uint256 i = 0 ;i<number; i++){\r\n            myArray[i]=randomString(4);\r\n        }\r\n        return myArray;\r\n    }\r\n\r\n\r\n    \r\n}\r\n",
  "sourcePath": "C:\\Users\\Admin\\NCKH\\contracts\\ManageMedicalRecords.sol",
  "compiler": {
    "name": "solc",
    "version": "0.8.18+commit.87f61d96.Emscripten.clang"
  },
  "schemaVersion": "3.4.12",
  "updatedAt": "2023-03-27T17:17:47.665Z",
  "networkType": "ethereum",
  "devdoc": {
    "kind": "dev",
    "methods": {},
    "version": 1
  },
  "userdoc": {
    "kind": "user",
    "methods": {},
    "version": 1
  }
}